{
  "contractName": "ImageContract",
  "abi": [
    {
      "inputs": [],
      "stateMutability": "nonpayable",
      "type": "constructor"
    },
    {
      "anonymous": false,
      "inputs": [
        {
          "indexed": true,
          "internalType": "address",
          "name": "owner",
          "type": "address"
        },
        {
          "indexed": true,
          "internalType": "address",
          "name": "approved",
          "type": "address"
        },
        {
          "indexed": true,
          "internalType": "uint256",
          "name": "tokenId",
          "type": "uint256"
        }
      ],
      "name": "Approval",
      "type": "event"
    },
    {
      "anonymous": false,
      "inputs": [
        {
          "indexed": true,
          "internalType": "address",
          "name": "owner",
          "type": "address"
        },
        {
          "indexed": true,
          "internalType": "address",
          "name": "operator",
          "type": "address"
        },
        {
          "indexed": false,
          "internalType": "bool",
          "name": "approved",
          "type": "bool"
        }
      ],
      "name": "ApprovalForAll",
      "type": "event"
    },
    {
      "anonymous": false,
      "inputs": [
        {
          "indexed": true,
          "internalType": "address",
          "name": "from",
          "type": "address"
        },
        {
          "indexed": true,
          "internalType": "address",
          "name": "to",
          "type": "address"
        },
        {
          "indexed": true,
          "internalType": "uint256",
          "name": "tokenId",
          "type": "uint256"
        }
      ],
      "name": "Transfer",
      "type": "event"
    },
    {
      "inputs": [
        {
          "internalType": "address",
          "name": "to",
          "type": "address"
        },
        {
          "internalType": "uint256",
          "name": "tokenId",
          "type": "uint256"
        }
      ],
      "name": "approve",
      "outputs": [],
      "stateMutability": "nonpayable",
      "type": "function"
    },
    {
      "inputs": [
        {
          "internalType": "address",
          "name": "owner",
          "type": "address"
        }
      ],
      "name": "balanceOf",
      "outputs": [
        {
          "internalType": "uint256",
          "name": "",
          "type": "uint256"
        }
      ],
      "stateMutability": "view",
      "type": "function",
      "constant": true
    },
    {
      "inputs": [
        {
          "internalType": "uint256",
          "name": "tokenId",
          "type": "uint256"
        }
      ],
      "name": "getApproved",
      "outputs": [
        {
          "internalType": "address",
          "name": "",
          "type": "address"
        }
      ],
      "stateMutability": "view",
      "type": "function",
      "constant": true
    },
    {
      "inputs": [
        {
          "internalType": "uint256",
          "name": "",
          "type": "uint256"
        }
      ],
      "name": "imageData",
      "outputs": [
        {
          "internalType": "string",
          "name": "name",
          "type": "string"
        },
        {
          "internalType": "string",
          "name": "description",
          "type": "string"
        },
        {
          "internalType": "string",
          "name": "url",
          "type": "string"
        },
        {
          "internalType": "uint256",
          "name": "price",
          "type": "uint256"
        }
      ],
      "stateMutability": "view",
      "type": "function",
      "constant": true
    },
    {
      "inputs": [
        {
          "internalType": "uint256",
          "name": "",
          "type": "uint256"
        }
      ],
      "name": "images",
      "outputs": [
        {
          "internalType": "string",
          "name": "",
          "type": "string"
        }
      ],
      "stateMutability": "view",
      "type": "function",
      "constant": true
    },
    {
      "inputs": [
        {
          "internalType": "address",
          "name": "owner",
          "type": "address"
        },
        {
          "internalType": "address",
          "name": "operator",
          "type": "address"
        }
      ],
      "name": "isApprovedForAll",
      "outputs": [
        {
          "internalType": "bool",
          "name": "",
          "type": "bool"
        }
      ],
      "stateMutability": "view",
      "type": "function",
      "constant": true
    },
    {
      "inputs": [],
      "name": "name",
      "outputs": [
        {
          "internalType": "string",
          "name": "",
          "type": "string"
        }
      ],
      "stateMutability": "view",
      "type": "function",
      "constant": true
    },
    {
      "inputs": [
        {
          "internalType": "uint256",
          "name": "tokenId",
          "type": "uint256"
        }
      ],
      "name": "ownerOf",
      "outputs": [
        {
          "internalType": "address",
          "name": "",
          "type": "address"
        }
      ],
      "stateMutability": "view",
      "type": "function",
      "constant": true
    },
    {
      "inputs": [
        {
          "internalType": "address",
          "name": "from",
          "type": "address"
        },
        {
          "internalType": "address",
          "name": "to",
          "type": "address"
        },
        {
          "internalType": "uint256",
          "name": "tokenId",
          "type": "uint256"
        }
      ],
      "name": "safeTransferFrom",
      "outputs": [],
      "stateMutability": "nonpayable",
      "type": "function"
    },
    {
      "inputs": [
        {
          "internalType": "address",
          "name": "from",
          "type": "address"
        },
        {
          "internalType": "address",
          "name": "to",
          "type": "address"
        },
        {
          "internalType": "uint256",
          "name": "tokenId",
          "type": "uint256"
        },
        {
          "internalType": "bytes",
          "name": "_data",
          "type": "bytes"
        }
      ],
      "name": "safeTransferFrom",
      "outputs": [],
      "stateMutability": "nonpayable",
      "type": "function"
    },
    {
      "inputs": [
        {
          "internalType": "address",
          "name": "operator",
          "type": "address"
        },
        {
          "internalType": "bool",
          "name": "approved",
          "type": "bool"
        }
      ],
      "name": "setApprovalForAll",
      "outputs": [],
      "stateMutability": "nonpayable",
      "type": "function"
    },
    {
      "inputs": [
        {
          "internalType": "bytes4",
          "name": "interfaceId",
          "type": "bytes4"
        }
      ],
      "name": "supportsInterface",
      "outputs": [
        {
          "internalType": "bool",
          "name": "",
          "type": "bool"
        }
      ],
      "stateMutability": "view",
      "type": "function",
      "constant": true
    },
    {
      "inputs": [],
      "name": "symbol",
      "outputs": [
        {
          "internalType": "string",
          "name": "",
          "type": "string"
        }
      ],
      "stateMutability": "view",
      "type": "function",
      "constant": true
    },
    {
      "inputs": [
        {
          "internalType": "uint256",
          "name": "index",
          "type": "uint256"
        }
      ],
      "name": "tokenByIndex",
      "outputs": [
        {
          "internalType": "uint256",
          "name": "",
          "type": "uint256"
        }
      ],
      "stateMutability": "view",
      "type": "function",
      "constant": true
    },
    {
      "inputs": [
        {
          "internalType": "address",
          "name": "owner",
          "type": "address"
        },
        {
          "internalType": "uint256",
          "name": "index",
          "type": "uint256"
        }
      ],
      "name": "tokenOfOwnerByIndex",
      "outputs": [
        {
          "internalType": "uint256",
          "name": "",
          "type": "uint256"
        }
      ],
      "stateMutability": "view",
      "type": "function",
      "constant": true
    },
    {
      "inputs": [
        {
          "internalType": "uint256",
          "name": "tokenId",
          "type": "uint256"
        }
      ],
      "name": "tokenURI",
      "outputs": [
        {
          "internalType": "string",
          "name": "",
          "type": "string"
        }
      ],
      "stateMutability": "view",
      "type": "function",
      "constant": true
    },
    {
      "inputs": [],
      "name": "totalSupply",
      "outputs": [
        {
          "internalType": "uint256",
          "name": "",
          "type": "uint256"
        }
      ],
      "stateMutability": "view",
      "type": "function",
      "constant": true
    },
    {
      "inputs": [
        {
          "internalType": "address",
          "name": "from",
          "type": "address"
        },
        {
          "internalType": "address",
          "name": "to",
          "type": "address"
        },
        {
          "internalType": "uint256",
          "name": "tokenId",
          "type": "uint256"
        }
      ],
      "name": "transferFrom",
      "outputs": [],
      "stateMutability": "nonpayable",
      "type": "function"
    },
    {
      "inputs": [
        {
          "internalType": "string",
          "name": "_name",
          "type": "string"
        },
        {
          "internalType": "string",
          "name": "_description",
          "type": "string"
        },
        {
          "internalType": "string",
          "name": "_url",
          "type": "string"
        },
        {
          "internalType": "uint256",
          "name": "_price",
          "type": "uint256"
        }
      ],
      "name": "mint",
      "outputs": [
        {
          "internalType": "uint256",
          "name": "",
          "type": "uint256"
        }
      ],
      "stateMutability": "nonpayable",
      "type": "function"
    },
    {
      "inputs": [
        {
          "internalType": "address",
          "name": "_to",
          "type": "address"
        },
        {
          "internalType": "uint256",
          "name": "_tokenId",
          "type": "uint256"
        }
      ],
      "name": "approveNFT",
      "outputs": [],
      "stateMutability": "nonpayable",
      "type": "function"
    },
    {
      "inputs": [
        {
          "internalType": "address",
          "name": "_address",
          "type": "address"
        },
        {
          "internalType": "uint256",
          "name": "_tokenId",
          "type": "uint256"
        }
      ],
      "name": "isApprovedOrOwner",
      "outputs": [
        {
          "internalType": "bool",
          "name": "",
          "type": "bool"
        }
      ],
      "stateMutability": "nonpayable",
      "type": "function"
    },
    {
      "inputs": [
        {
          "internalType": "uint256",
          "name": "_id",
          "type": "uint256"
        },
        {
          "internalType": "uint256",
          "name": "_price",
          "type": "uint256"
        }
      ],
      "name": "updatePrice",
      "outputs": [
        {
          "internalType": "bool",
          "name": "",
          "type": "bool"
        }
      ],
      "stateMutability": "nonpayable",
      "type": "function"
    },
    {
      "inputs": [
        {
          "internalType": "address",
          "name": "_to",
          "type": "address"
        },
        {
          "internalType": "uint256",
          "name": "_tokenId",
          "type": "uint256"
        },
        {
          "internalType": "uint256",
          "name": "_price",
          "type": "uint256"
        }
      ],
      "name": "approveForSale",
      "outputs": [],
      "stateMutability": "nonpayable",
      "type": "function"
    },
    {
      "inputs": [
        {
          "internalType": "address",
          "name": "_to",
          "type": "address"
        },
        {
          "internalType": "uint256",
          "name": "_tokenId",
          "type": "uint256"
        },
        {
          "internalType": "uint256",
          "name": "_price",
          "type": "uint256"
        },
        {
          "internalType": "uint256",
          "name": "_time",
          "type": "uint256"
        }
      ],
      "name": "approveForAuction",
      "outputs": [],
      "stateMutability": "nonpayable",
      "type": "function"
    },
    {
      "inputs": [
        {
          "internalType": "uint256",
          "name": "_tokenId",
          "type": "uint256"
        }
      ],
      "name": "nftSold",
      "outputs": [],
      "stateMutability": "nonpayable",
      "type": "function"
    }
  ],
  "bytecode": "0x60806040523480156200001157600080fd5b506040518060400160405280600981526020017f496d6167655f4e465400000000000000000000000000000000000000000000008152506040518060400160405280600381526020017f494d470000000000000000000000000000000000000000000000000000000000815250816000908051906020019062000096929190620000b8565b508060019080519060200190620000af929190620000b8565b505050620001cd565b828054620000c69062000168565b90600052602060002090601f016020900481019282620000ea576000855562000136565b82601f106200010557805160ff191683800117855562000136565b8280016001018555821562000136579182015b828111156200013557825182559160200191906001019062000118565b5b50905062000145919062000149565b5090565b5b80821115620001645760008160009055506001016200014a565b5090565b600060028204905060018216806200018157607f821691505b602082108114156200019857620001976200019e565b5b50919050565b7f4e487b7100000000000000000000000000000000000000000000000000000000600052602260045260246000fd5b613abd80620001dd6000396000f3fe608060405234801561001057600080fd5b50600436106101735760003560e01c8063430c2081116100de57806395d89b4111610097578063b88d4fde11610071578063b88d4fde146104a9578063c87b56dd146104c5578063e985e9c5146104f5578063fbd4bae11461052557610173565b806395d89b41146104535780639600dd8314610471578063a22cb4651461048d57610173565b8063430c2081146103335780634f6ccce7146103635780636352211e1461039357806370a08231146103c357806382367b2d146103f3578063848564821461042357610173565b806318160ddd1161013057806318160ddd1461026157806323b872dd1461027f5780632f745c591461029b57806331b6475c146102cb57806341160d47146102fb57806342842e0e1461031757610173565b806301ffc9a714610178578063061ba2f1146101a857806306fdde03146101db578063081812fc146101f9578063095ea7b31461022957806316875c1114610245575b600080fd5b610192600480360381019061018d9190612a73565b610541565b60405161019f919061339b565b60405180910390f35b6101c260048036038101906101bd9190612b70565b6105bb565b6040516101d294939291906133d8565b60405180910390f35b6101e3610783565b6040516101f091906133b6565b60405180910390f35b610213600480360381019061020e9190612b70565b610815565b6040516102209190613334565b60405180910390f35b610243600480360381019061023e9190612985565b61089a565b005b61025f600480360381019061025a9190612b70565b6109b2565b005b610269610a0d565b6040516102769190613652565b60405180910390f35b6102996004803603810190610294919061287f565b610a1a565b005b6102b560048036038101906102b09190612985565b610a7a565b6040516102c29190613652565b60405180910390f35b6102e560048036038101906102e09190612ac5565b610b1f565b6040516102f29190613652565b60405180910390f35b61031560048036038101906103109190612a10565b610c9c565b005b610331600480360381019061032c919061287f565b610d51565b005b61034d60048036038101906103489190612985565b610d71565b60405161035a919061339b565b60405180910390f35b61037d60048036038101906103789190612b70565b610d85565b60405161038a9190613652565b60405180910390f35b6103ad60048036038101906103a89190612b70565b610e1c565b6040516103ba9190613334565b60405180910390f35b6103dd60048036038101906103d8919061281a565b610ece565b6040516103ea9190613652565b60405180910390f35b61040d60048036038101906104089190612b99565b610f86565b60405161041a919061339b565b60405180910390f35b61043d60048036038101906104389190612b70565b610fed565b60405161044a91906133b6565b60405180910390f35b61045b611099565b60405161046891906133b6565b60405180910390f35b61048b60048036038101906104869190612985565b61112b565b005b6104a760048036038101906104a29190612949565b611139565b005b6104c360048036038101906104be91906128ce565b6112ba565b005b6104df60048036038101906104da9190612b70565b61131c565b6040516104ec91906133b6565b60405180910390f35b61050f600480360381019061050a9190612843565b61146e565b60405161051c919061339b565b60405180910390f35b61053f600480360381019061053a91906129c1565b611502565b005b60007f780e9d63000000000000000000000000000000000000000000000000000000007bffffffffffffffffffffffffffffffffffffffffffffffffffffffff1916827bffffffffffffffffffffffffffffffffffffffffffffffffffffffff191614806105b457506105b382611579565b5b9050919050565b600c6020528060005260406000206000915090508060000180546105de906138b2565b80601f016020809104026020016040519081016040528092919081815260200182805461060a906138b2565b80156106575780601f1061062c57610100808354040283529160200191610657565b820191906000526020600020905b81548152906001019060200180831161063a57829003601f168201915b50505050509080600101805461066c906138b2565b80601f0160208091040260200160405190810160405280929190818152602001828054610698906138b2565b80156106e55780601f106106ba576101008083540402835291602001916106e5565b820191906000526020600020905b8154815290600101906020018083116106c857829003601f168201915b5050505050908060020180546106fa906138b2565b80601f0160208091040260200160405190810160405280929190818152602001828054610726906138b2565b80156107735780601f1061074857610100808354040283529160200191610773565b820191906000526020600020905b81548152906001019060200180831161075657829003601f168201915b5050505050908060030154905084565b606060008054610792906138b2565b80601f01602080910402602001604051908101604052809291908181526020018280546107be906138b2565b801561080b5780601f106107e05761010080835404028352916020019161080b565b820191906000526020600020905b8154815290600101906020018083116107ee57829003601f168201915b5050505050905090565b60006108208261165b565b61085f576040517f08c379a000000000000000000000000000000000000000000000000000000000815260040161085690613592565b60405180910390fd5b6004600083815260200190815260200160002060009054906101000a900473ffffffffffffffffffffffffffffffffffffffff169050919050565b60006108a582610e1c565b90508073ffffffffffffffffffffffffffffffffffffffff168373ffffffffffffffffffffffffffffffffffffffff161415610916576040517f08c379a000000000000000000000000000000000000000000000000000000000815260040161090d906135f2565b60405180910390fd5b8073ffffffffffffffffffffffffffffffffffffffff166109356116c7565b73ffffffffffffffffffffffffffffffffffffffff16148061096457506109638161095e6116c7565b61146e565b5b6109a3576040517f08c379a000000000000000000000000000000000000000000000000000000000815260040161099a906134f2565b60405180910390fd5b6109ad83836116cf565b505050565b6000600f600083815260200190815260200160002060006101000a81548160ff0219169083151502179055506000600e600083815260200190815260200160002060006101000a81548160ff02191690831515021790555050565b6000600880549050905090565b610a2b610a256116c7565b82611788565b610a6a576040517f08c379a0000000000000000000000000000000000000000000000000000000008152600401610a6190613612565b60405180910390fd5b610a75838383611866565b505050565b6000610a8583610ece565b8210610ac6576040517f08c379a0000000000000000000000000000000000000000000000000000000008152600401610abd90613432565b60405180910390fd5b600660008473ffffffffffffffffffffffffffffffffffffffff1673ffffffffffffffffffffffffffffffffffffffff168152602001908152602001600020600083815260200190815260200160002054905092915050565b6000600d83604051610b3191906132f9565b908152602001604051809103902060009054906101000a900460ff1615610b5757600080fd5b610b5f6125fc565b85816000018190525084816020018190525083816040018190525082816060018181525050600b84908060018154018082558091505060019003906000526020600020016000909190919091509080519060200190610bbf929190612624565b5060006001600b80549050610bd491906137c8565b905081600c60008381526020019081526020016000206000820151816000019080519060200190610c06929190612624565b506020820151816001019080519060200190610c23929190612624565b506040820151816002019080519060200190610c40929190612624565b5060608201518160030155905050610c583382611ac2565b6001600d86604051610c6a91906132f9565b908152602001604051809103902060006101000a81548160ff0219169083151502179055508092505050949350505050565b60001515600f600085815260200190815260200160002060009054906101000a900460ff16151514610ccd57600080fd5b6001600e600085815260200190815260200160002060006101000a81548160ff021916908315150217905550610d03848461112b565b610d0b6126aa565b8281600001818152505081816020018181525050806010600086815260200190815260200160002060008201518160000155602082015181600101559050505050505050565b610d6c838383604051806020016040528060008152506112ba565b505050565b6000610d7d8383611788565b905092915050565b6000610d8f610a0d565b8210610dd0576040517f08c379a0000000000000000000000000000000000000000000000000000000008152600401610dc790613632565b60405180910390fd5b60088281548110610e0a577f4e487b7100000000000000000000000000000000000000000000000000000000600052603260045260246000fd5b90600052602060002001549050919050565b6000806002600084815260200190815260200160002060009054906101000a900473ffffffffffffffffffffffffffffffffffffffff169050600073ffffffffffffffffffffffffffffffffffffffff168173ffffffffffffffffffffffffffffffffffffffff161415610ec5576040517f08c379a0000000000000000000000000000000000000000000000000000000008152600401610ebc90613532565b60405180910390fd5b80915050919050565b60008073ffffffffffffffffffffffffffffffffffffffff168273ffffffffffffffffffffffffffffffffffffffff161415610f3f576040517f08c379a0000000000000000000000000000000000000000000000000000000008152600401610f3690613512565b60405180910390fd5b600360008373ffffffffffffffffffffffffffffffffffffffff1673ffffffffffffffffffffffffffffffffffffffff168152602001908152602001600020549050919050565b60003373ffffffffffffffffffffffffffffffffffffffff16610fa884610e1c565b73ffffffffffffffffffffffffffffffffffffffff1614610fc857600080fd5b81600c6000858152602001908152602001600020600301819055506001905092915050565b600b8181548110610ffd57600080fd5b906000526020600020016000915090508054611018906138b2565b80601f0160208091040260200160405190810160405280929190818152602001828054611044906138b2565b80156110915780601f1061106657610100808354040283529160200191611091565b820191906000526020600020905b81548152906001019060200180831161107457829003601f168201915b505050505081565b6060600180546110a8906138b2565b80601f01602080910402602001604051908101604052809291908181526020018280546110d4906138b2565b80156111215780601f106110f657610100808354040283529160200191611121565b820191906000526020600020905b81548152906001019060200180831161110457829003601f168201915b5050505050905090565b611135828261089a565b5050565b6111416116c7565b73ffffffffffffffffffffffffffffffffffffffff168273ffffffffffffffffffffffffffffffffffffffff1614156111af576040517f08c379a00000000000000000000000000000000000000000000000000000000081526004016111a6906134b2565b60405180910390fd5b80600560006111bc6116c7565b73ffffffffffffffffffffffffffffffffffffffff1673ffffffffffffffffffffffffffffffffffffffff16815260200190815260200160002060008473ffffffffffffffffffffffffffffffffffffffff1673ffffffffffffffffffffffffffffffffffffffff16815260200190815260200160002060006101000a81548160ff0219169083151502179055508173ffffffffffffffffffffffffffffffffffffffff166112696116c7565b73ffffffffffffffffffffffffffffffffffffffff167f17307eab39ab6107e8899845ad3d59bd9653f200f220920489ca2b5937696c31836040516112ae919061339b565b60405180910390a35050565b6112cb6112c56116c7565b83611788565b61130a576040517f08c379a000000000000000000000000000000000000000000000000000000000815260040161130190613612565b60405180910390fd5b61131684848484611c90565b50505050565b60606113278261165b565b611366576040517f08c379a000000000000000000000000000000000000000000000000000000000815260040161135d90613572565b60405180910390fd5b6000600a60008481526020019081526020016000208054611386906138b2565b80601f01602080910402602001604051908101604052809291908181526020018280546113b2906138b2565b80156113ff5780601f106113d4576101008083540402835291602001916113ff565b820191906000526020600020905b8154815290600101906020018083116113e257829003601f168201915b505050505090506000611410611cec565b9050600081511415611426578192505050611469565b60008251111561145b578082604051602001611443929190613310565b60405160208183030381529060405292505050611469565b61146484611d03565b925050505b919050565b6000600560008473ffffffffffffffffffffffffffffffffffffffff1673ffffffffffffffffffffffffffffffffffffffff16815260200190815260200160002060008373ffffffffffffffffffffffffffffffffffffffff1673ffffffffffffffffffffffffffffffffffffffff16815260200190815260200160002060009054906101000a900460ff16905092915050565b60001515600e600084815260200190815260200160002060009054906101000a900460ff1615151461153357600080fd5b6001600f600084815260200190815260200160002060006101000a81548160ff0219169083151502179055506115698282610f86565b50611574838361112b565b505050565b60007f80ac58cd000000000000000000000000000000000000000000000000000000007bffffffffffffffffffffffffffffffffffffffffffffffffffffffff1916827bffffffffffffffffffffffffffffffffffffffffffffffffffffffff1916148061164457507f5b5e139f000000000000000000000000000000000000000000000000000000007bffffffffffffffffffffffffffffffffffffffffffffffffffffffff1916827bffffffffffffffffffffffffffffffffffffffffffffffffffffffff1916145b80611654575061165382611daa565b5b9050919050565b60008073ffffffffffffffffffffffffffffffffffffffff166002600084815260200190815260200160002060009054906101000a900473ffffffffffffffffffffffffffffffffffffffff1673ffffffffffffffffffffffffffffffffffffffff1614159050919050565b600033905090565b816004600083815260200190815260200160002060006101000a81548173ffffffffffffffffffffffffffffffffffffffff021916908373ffffffffffffffffffffffffffffffffffffffff160217905550808273ffffffffffffffffffffffffffffffffffffffff1661174283610e1c565b73ffffffffffffffffffffffffffffffffffffffff167f8c5be1e5ebec7d5bd14f71427d1e84f3dd0314c0f7b2291e5b200ac8c7c3b92560405160405180910390a45050565b60006117938261165b565b6117d2576040517f08c379a00000000000000000000000000000000000000000000000000000000081526004016117c9906134d2565b60405180910390fd5b60006117dd83610e1c565b90508073ffffffffffffffffffffffffffffffffffffffff168473ffffffffffffffffffffffffffffffffffffffff16148061184c57508373ffffffffffffffffffffffffffffffffffffffff1661183484610815565b73ffffffffffffffffffffffffffffffffffffffff16145b8061185d575061185c818561146e565b5b91505092915050565b8273ffffffffffffffffffffffffffffffffffffffff1661188682610e1c565b73ffffffffffffffffffffffffffffffffffffffff16146118dc576040517f08c379a00000000000000000000000000000000000000000000000000000000081526004016118d3906135b2565b60405180910390fd5b600073ffffffffffffffffffffffffffffffffffffffff168273ffffffffffffffffffffffffffffffffffffffff16141561194c576040517f08c379a000000000000000000000000000000000000000000000000000000000815260040161194390613492565b60405180910390fd5b611957838383611e14565b6119626000826116cf565b6001600360008573ffffffffffffffffffffffffffffffffffffffff1673ffffffffffffffffffffffffffffffffffffffff16815260200190815260200160002060008282546119b291906137c8565b925050819055506001600360008473ffffffffffffffffffffffffffffffffffffffff1673ffffffffffffffffffffffffffffffffffffffff1681526020019081526020016000206000828254611a099190613741565b92505081905550816002600083815260200190815260200160002060006101000a81548173ffffffffffffffffffffffffffffffffffffffff021916908373ffffffffffffffffffffffffffffffffffffffff160217905550808273ffffffffffffffffffffffffffffffffffffffff168473ffffffffffffffffffffffffffffffffffffffff167fddf252ad1be2c89b69c2b068fc378daa952ba7f163c4a11628f55a4df523b3ef60405160405180910390a4505050565b600073ffffffffffffffffffffffffffffffffffffffff168273ffffffffffffffffffffffffffffffffffffffff161415611b32576040517f08c379a0000000000000000000000000000000000000000000000000000000008152600401611b2990613552565b60405180910390fd5b611b3b8161165b565b15611b7b576040517f08c379a0000000000000000000000000000000000000000000000000000000008152600401611b7290613472565b60405180910390fd5b611b8760008383611e14565b6001600360008473ffffffffffffffffffffffffffffffffffffffff1673ffffffffffffffffffffffffffffffffffffffff1681526020019081526020016000206000828254611bd79190613741565b92505081905550816002600083815260200190815260200160002060006101000a81548173ffffffffffffffffffffffffffffffffffffffff021916908373ffffffffffffffffffffffffffffffffffffffff160217905550808273ffffffffffffffffffffffffffffffffffffffff16600073ffffffffffffffffffffffffffffffffffffffff167fddf252ad1be2c89b69c2b068fc378daa952ba7f163c4a11628f55a4df523b3ef60405160405180910390a45050565b611c9b848484611866565b611ca784848484611f28565b611ce6576040517f08c379a0000000000000000000000000000000000000000000000000000000008152600401611cdd90613452565b60405180910390fd5b50505050565b606060405180602001604052806000815250905090565b6060611d0e8261165b565b611d4d576040517f08c379a0000000000000000000000000000000000000000000000000000000008152600401611d44906135d2565b60405180910390fd5b6000611d57611cec565b90506000815111611d775760405180602001604052806000815250611da2565b80611d81846120bf565b604051602001611d92929190613310565b6040516020818303038152906040525b915050919050565b60007f01ffc9a7000000000000000000000000000000000000000000000000000000007bffffffffffffffffffffffffffffffffffffffffffffffffffffffff1916827bffffffffffffffffffffffffffffffffffffffffffffffffffffffff1916149050919050565b611e1f83838361226c565b600073ffffffffffffffffffffffffffffffffffffffff168373ffffffffffffffffffffffffffffffffffffffff161415611e6257611e5d81612271565b611ea1565b8173ffffffffffffffffffffffffffffffffffffffff168373ffffffffffffffffffffffffffffffffffffffff1614611ea057611e9f83826122ba565b5b5b600073ffffffffffffffffffffffffffffffffffffffff168273ffffffffffffffffffffffffffffffffffffffff161415611ee457611edf81612427565b611f23565b8273ffffffffffffffffffffffffffffffffffffffff168273ffffffffffffffffffffffffffffffffffffffff1614611f2257611f21828261256a565b5b5b505050565b6000611f498473ffffffffffffffffffffffffffffffffffffffff166125e9565b156120b2578373ffffffffffffffffffffffffffffffffffffffff1663150b7a02611f726116c7565b8786866040518563ffffffff1660e01b8152600401611f94949392919061334f565b602060405180830381600087803b158015611fae57600080fd5b505af1925050508015611fdf57506040513d601f19601f82011682018060405250810190611fdc9190612a9c565b60015b612062573d806000811461200f576040519150601f19603f3d011682016040523d82523d6000602084013e612014565b606091505b5060008151141561205a576040517f08c379a000000000000000000000000000000000000000000000000000000000815260040161205190613452565b60405180910390fd5b805181602001fd5b63150b7a0260e01b7bffffffffffffffffffffffffffffffffffffffffffffffffffffffff1916817bffffffffffffffffffffffffffffffffffffffffffffffffffffffff1916149150506120b7565b600190505b949350505050565b60606000821415612107576040518060400160405280600181526020017f30000000000000000000000000000000000000000000000000000000000000008152509050612267565b600082905060005b60008214612139578080612122906138e4565b915050600a826121329190613797565b915061210f565b60008167ffffffffffffffff81111561217b577f4e487b7100000000000000000000000000000000000000000000000000000000600052604160045260246000fd5b6040519080825280601f01601f1916602001820160405280156121ad5781602001600182028036833780820191505090505b5090505b60008514612260576001826121c691906137c8565b9150600a856121d5919061392d565b60306121e19190613741565b60f81b81838151811061221d577f4e487b7100000000000000000000000000000000000000000000000000000000600052603260045260246000fd5b60200101907effffffffffffffffffffffffffffffffffffffffffffffffffffffffffffff1916908160001a905350600a856122599190613797565b94506121b1565b8093505050505b919050565b505050565b6008805490506009600083815260200190815260200160002081905550600881908060018154018082558091505060019003906000526020600020016000909190919091505550565b600060016122c784610ece565b6122d191906137c8565b90506000600760008481526020019081526020016000205490508181146123b6576000600660008673ffffffffffffffffffffffffffffffffffffffff1673ffffffffffffffffffffffffffffffffffffffff168152602001908152602001600020600084815260200190815260200160002054905080600660008773ffffffffffffffffffffffffffffffffffffffff1673ffffffffffffffffffffffffffffffffffffffff168152602001908152602001600020600084815260200190815260200160002081905550816007600083815260200190815260200160002081905550505b6007600084815260200190815260200160002060009055600660008573ffffffffffffffffffffffffffffffffffffffff1673ffffffffffffffffffffffffffffffffffffffff16815260200190815260200160002060008381526020019081526020016000206000905550505050565b6000600160088054905061243b91906137c8565b9050600060096000848152602001908152602001600020549050600060088381548110612491577f4e487b7100000000000000000000000000000000000000000000000000000000600052603260045260246000fd5b9060005260206000200154905080600883815481106124d9577f4e487b7100000000000000000000000000000000000000000000000000000000600052603260045260246000fd5b90600052602060002001819055508160096000838152602001908152602001600020819055506009600085815260200190815260200160002060009055600880548061254e577f4e487b7100000000000000000000000000000000000000000000000000000000600052603160045260246000fd5b6001900381819060005260206000200160009055905550505050565b600061257583610ece565b905081600660008573ffffffffffffffffffffffffffffffffffffffff1673ffffffffffffffffffffffffffffffffffffffff168152602001908152602001600020600083815260200190815260200160002081905550806007600084815260200190815260200160002081905550505050565b600080823b905060008111915050919050565b6040518060800160405280606081526020016060815260200160608152602001600081525090565b828054612630906138b2565b90600052602060002090601f0160209004810192826126525760008555612699565b82601f1061266b57805160ff1916838001178555612699565b82800160010185558215612699579182015b8281111561269857825182559160200191906001019061267d565b5b5090506126a691906126c4565b5090565b604051806040016040528060008152602001600081525090565b5b808211156126dd5760008160009055506001016126c5565b5090565b60006126f46126ef8461369e565b61366d565b90508281526020810184848401111561270c57600080fd5b612717848285613870565b509392505050565b600061273261272d846136ce565b61366d565b90508281526020810184848401111561274a57600080fd5b612755848285613870565b509392505050565b60008135905061276c81613a2b565b92915050565b60008135905061278181613a42565b92915050565b60008135905061279681613a59565b92915050565b6000815190506127ab81613a59565b92915050565b600082601f8301126127c257600080fd5b81356127d28482602086016126e1565b91505092915050565b600082601f8301126127ec57600080fd5b81356127fc84826020860161271f565b91505092915050565b60008135905061281481613a70565b92915050565b60006020828403121561282c57600080fd5b600061283a8482850161275d565b91505092915050565b6000806040838503121561285657600080fd5b60006128648582860161275d565b92505060206128758582860161275d565b9150509250929050565b60008060006060848603121561289457600080fd5b60006128a28682870161275d565b93505060206128b38682870161275d565b92505060406128c486828701612805565b9150509250925092565b600080600080608085870312156128e457600080fd5b60006128f28782880161275d565b94505060206129038782880161275d565b935050604061291487828801612805565b925050606085013567ffffffffffffffff81111561293157600080fd5b61293d878288016127b1565b91505092959194509250565b6000806040838503121561295c57600080fd5b600061296a8582860161275d565b925050602061297b85828601612772565b9150509250929050565b6000806040838503121561299857600080fd5b60006129a68582860161275d565b92505060206129b785828601612805565b9150509250929050565b6000806000606084860312156129d657600080fd5b60006129e48682870161275d565b93505060206129f586828701612805565b9250506040612a0686828701612805565b9150509250925092565b60008060008060808587031215612a2657600080fd5b6000612a348782880161275d565b9450506020612a4587828801612805565b9350506040612a5687828801612805565b9250506060612a6787828801612805565b91505092959194509250565b600060208284031215612a8557600080fd5b6000612a9384828501612787565b91505092915050565b600060208284031215612aae57600080fd5b6000612abc8482850161279c565b91505092915050565b60008060008060808587031215612adb57600080fd5b600085013567ffffffffffffffff811115612af557600080fd5b612b01878288016127db565b945050602085013567ffffffffffffffff811115612b1e57600080fd5b612b2a878288016127db565b935050604085013567ffffffffffffffff811115612b4757600080fd5b612b53878288016127db565b9250506060612b6487828801612805565b91505092959194509250565b600060208284031215612b8257600080fd5b6000612b9084828501612805565b91505092915050565b60008060408385031215612bac57600080fd5b6000612bba85828601612805565b9250506020612bcb85828601612805565b9150509250929050565b612bde816137fc565b82525050565b612bed8161380e565b82525050565b6000612bfe826136fe565b612c088185613714565b9350612c1881856020860161387f565b612c2181613a1a565b840191505092915050565b6000612c3782613709565b612c418185613725565b9350612c5181856020860161387f565b612c5a81613a1a565b840191505092915050565b6000612c7082613709565b612c7a8185613736565b9350612c8a81856020860161387f565b80840191505092915050565b6000612ca3602b83613725565b91507f455243373231456e756d657261626c653a206f776e657220696e646578206f7560008301527f74206f6620626f756e64730000000000000000000000000000000000000000006020830152604082019050919050565b6000612d09603283613725565b91507f4552433732313a207472616e7366657220746f206e6f6e20455243373231526560008301527f63656976657220696d706c656d656e74657200000000000000000000000000006020830152604082019050919050565b6000612d6f601c83613725565b91507f4552433732313a20746f6b656e20616c7265616479206d696e746564000000006000830152602082019050919050565b6000612daf602483613725565b91507f4552433732313a207472616e7366657220746f20746865207a65726f2061646460008301527f72657373000000000000000000000000000000000000000000000000000000006020830152604082019050919050565b6000612e15601983613725565b91507f4552433732313a20617070726f766520746f2063616c6c6572000000000000006000830152602082019050919050565b6000612e55602c83613725565b91507f4552433732313a206f70657261746f7220717565727920666f72206e6f6e657860008301527f697374656e7420746f6b656e00000000000000000000000000000000000000006020830152604082019050919050565b6000612ebb603883613725565b91507f4552433732313a20617070726f76652063616c6c6572206973206e6f74206f7760008301527f6e6572206e6f7220617070726f76656420666f7220616c6c00000000000000006020830152604082019050919050565b6000612f21602a83613725565b91507f4552433732313a2062616c616e636520717565727920666f7220746865207a6560008301527f726f2061646472657373000000000000000000000000000000000000000000006020830152604082019050919050565b6000612f87602983613725565b91507f4552433732313a206f776e657220717565727920666f72206e6f6e657869737460008301527f656e7420746f6b656e00000000000000000000000000000000000000000000006020830152604082019050919050565b6000612fed602083613725565b91507f4552433732313a206d696e7420746f20746865207a65726f20616464726573736000830152602082019050919050565b600061302d603183613725565b91507f45524337323155524953746f726167653a2055524920717565727920666f722060008301527f6e6f6e6578697374656e7420746f6b656e0000000000000000000000000000006020830152604082019050919050565b6000613093602c83613725565b91507f4552433732313a20617070726f76656420717565727920666f72206e6f6e657860008301527f697374656e7420746f6b656e00000000000000000000000000000000000000006020830152604082019050919050565b60006130f9602983613725565b91507f4552433732313a207472616e73666572206f6620746f6b656e2074686174206960008301527f73206e6f74206f776e00000000000000000000000000000000000000000000006020830152604082019050919050565b600061315f602f83613725565b91507f4552433732314d657461646174613a2055524920717565727920666f72206e6f60008301527f6e6578697374656e7420746f6b656e00000000000000000000000000000000006020830152604082019050919050565b60006131c5602183613725565b91507f4552433732313a20617070726f76616c20746f2063757272656e74206f776e6560008301527f72000000000000000000000000000000000000000000000000000000000000006020830152604082019050919050565b600061322b603183613725565b91507f4552433732313a207472616e736665722063616c6c6572206973206e6f74206f60008301527f776e6572206e6f7220617070726f7665640000000000000000000000000000006020830152604082019050919050565b6000613291602c83613725565b91507f455243373231456e756d657261626c653a20676c6f62616c20696e646578206f60008301527f7574206f6620626f756e647300000000000000000000000000000000000000006020830152604082019050919050565b6132f381613866565b82525050565b60006133058284612c65565b915081905092915050565b600061331c8285612c65565b91506133288284612c65565b91508190509392505050565b60006020820190506133496000830184612bd5565b92915050565b60006080820190506133646000830187612bd5565b6133716020830186612bd5565b61337e60408301856132ea565b81810360608301526133908184612bf3565b905095945050505050565b60006020820190506133b06000830184612be4565b92915050565b600060208201905081810360008301526133d08184612c2c565b905092915050565b600060808201905081810360008301526133f28187612c2c565b905081810360208301526134068186612c2c565b9050818103604083015261341a8185612c2c565b905061342960608301846132ea565b95945050505050565b6000602082019050818103600083015261344b81612c96565b9050919050565b6000602082019050818103600083015261346b81612cfc565b9050919050565b6000602082019050818103600083015261348b81612d62565b9050919050565b600060208201905081810360008301526134ab81612da2565b9050919050565b600060208201905081810360008301526134cb81612e08565b9050919050565b600060208201905081810360008301526134eb81612e48565b9050919050565b6000602082019050818103600083015261350b81612eae565b9050919050565b6000602082019050818103600083015261352b81612f14565b9050919050565b6000602082019050818103600083015261354b81612f7a565b9050919050565b6000602082019050818103600083015261356b81612fe0565b9050919050565b6000602082019050818103600083015261358b81613020565b9050919050565b600060208201905081810360008301526135ab81613086565b9050919050565b600060208201905081810360008301526135cb816130ec565b9050919050565b600060208201905081810360008301526135eb81613152565b9050919050565b6000602082019050818103600083015261360b816131b8565b9050919050565b6000602082019050818103600083015261362b8161321e565b9050919050565b6000602082019050818103600083015261364b81613284565b9050919050565b600060208201905061366760008301846132ea565b92915050565b6000604051905081810181811067ffffffffffffffff82111715613694576136936139eb565b5b8060405250919050565b600067ffffffffffffffff8211156136b9576136b86139eb565b5b601f19601f8301169050602081019050919050565b600067ffffffffffffffff8211156136e9576136e86139eb565b5b601f19601f8301169050602081019050919050565b600081519050919050565b600081519050919050565b600082825260208201905092915050565b600082825260208201905092915050565b600081905092915050565b600061374c82613866565b915061375783613866565b9250827fffffffffffffffffffffffffffffffffffffffffffffffffffffffffffffffff0382111561378c5761378b61395e565b5b828201905092915050565b60006137a282613866565b91506137ad83613866565b9250826137bd576137bc61398d565b5b828204905092915050565b60006137d382613866565b91506137de83613866565b9250828210156137f1576137f061395e565b5b828203905092915050565b600061380782613846565b9050919050565b60008115159050919050565b60007fffffffff0000000000000000000000000000000000000000000000000000000082169050919050565b600073ffffffffffffffffffffffffffffffffffffffff82169050919050565b6000819050919050565b82818337600083830152505050565b60005b8381101561389d578082015181840152602081019050613882565b838111156138ac576000848401525b50505050565b600060028204905060018216806138ca57607f821691505b602082108114156138de576138dd6139bc565b5b50919050565b60006138ef82613866565b91507fffffffffffffffffffffffffffffffffffffffffffffffffffffffffffffffff8214156139225761392161395e565b5b600182019050919050565b600061393882613866565b915061394383613866565b9250826139535761395261398d565b5b828206905092915050565b7f4e487b7100000000000000000000000000000000000000000000000000000000600052601160045260246000fd5b7f4e487b7100000000000000000000000000000000000000000000000000000000600052601260045260246000fd5b7f4e487b7100000000000000000000000000000000000000000000000000000000600052602260045260246000fd5b7f4e487b7100000000000000000000000000000000000000000000000000000000600052604160045260246000fd5b6000601f19601f8301169050919050565b613a34816137fc565b8114613a3f57600080fd5b50565b613a4b8161380e565b8114613a5657600080fd5b50565b613a628161381a565b8114613a6d57600080fd5b50565b613a7981613866565b8114613a8457600080fd5b5056fea2646970667358221220d930351110ff67054ebb90a9fe565073dc0ae214d1c356c7354bb9121fdfe2fc64736f6c63430008000033",
  "immutableReferences": {},
  "source": "pragma solidity >0.5.0;\r\n\r\nimport \"../openzeppelin/token/ERC721/extensions/ERC721Full.sol\";\r\nimport \"../openzeppelin/token/ERC721/extensions/IERC721Metadata.sol\";\r\n\r\ncontract ImageContract is IERC721Metadata, ERC721Full{\r\n\r\n  struct metadata { \r\n  string name;\r\n  string description;\r\n  string url;\r\n  uint price;\r\n  }\r\n\r\n  string[] public images;\r\n  mapping(uint => metadata) public imageData;\r\n  mapping(string => bool) _imageExists;\r\n\r\n  mapping(uint => bool) _listedForAuction;\r\n  mapping(uint => bool) _listedForSale;\r\n\r\n\r\n  struct auctionData { \r\n  uint price;\r\n  uint time;\r\n  }\r\n  mapping(uint => auctionData) tokenAuction;\r\n\r\n\r\n  constructor() ERC721(\"Image_NFT\", \"IMG\") public {}\r\n\r\n  function mint(string memory _name, string memory _description, string memory _url, uint _price) public returns (uint){\r\n    require(!_imageExists[_url]);\r\n\r\n    metadata memory md;\r\n    md.name = _name;\r\n    md.description = _description;\r\n    md.url = _url;\r\n    md.price = _price;\r\n    \r\n    images.push(_url);\r\n    uint _id = images.length -1;\r\n    imageData[_id] = md;\r\n    _mint(msg.sender, _id);\r\n    _imageExists[_url] = true;\r\n\r\n    return _id;\r\n  }\r\n\r\n  function approveNFT(address _to, uint _tokenId) public {\r\n    approve(_to, _tokenId);\r\n  }\r\n  \r\n  function isApprovedOrOwner(address _address, uint _tokenId) public returns (bool){\r\n    return _isApprovedOrOwner(_address, _tokenId);\r\n  }\r\n\r\n  function updatePrice(uint _id, uint _price) public returns (bool){\r\n    require(ownerOf(_id) == msg.sender);\r\n    imageData[_id].price = _price;\r\n\r\n    return true;\r\n  }\r\n\r\n  function approveForSale(address _to, uint _tokenId, uint _price) public {\r\n    require(_listedForAuction[_tokenId] == false);\r\n    _listedForSale[_tokenId] = true;\r\n    updatePrice(_tokenId, _price);\r\n    approveNFT(_to, _tokenId);\r\n  }\r\n\r\n  function approveForAuction(address _to, uint _tokenId, uint _price, uint _time) public {\r\n    require(_listedForSale[_tokenId] == false);\r\n    _listedForAuction[_tokenId] = true;\r\n    // updatePrice(_tokenId, _price);\r\n    approveNFT(_to, _tokenId);\r\n\r\n    auctionData memory ad;\r\n    ad.price = _price;\r\n    ad.time = _time;\r\n\r\n    tokenAuction[_tokenId] = ad;\r\n  }\r\n\r\n  function nftSold(uint _tokenId) public {\r\n    _listedForSale[_tokenId] = false;\r\n    _listedForAuction[_tokenId] = false;\r\n  }\r\n\r\n}",
  "sourcePath": "C:\\Users\\Adi\\Documents\\BinanceIDO\\nft-market\\src\\contracts\\ImageContract.sol",
  "compiler": {
    "name": "solc",
    "version": "0.8.0+commit.c7dfd78e.Emscripten.clang"
  },
  "schemaVersion": "3.3.4",
  "updatedAt": "2021-11-06T12:46:42.221Z",
  "networkType": "ethereum",
  "devdoc": {
    "kind": "dev",
    "methods": {
      "approve(address,uint256)": {
        "details": "See {IERC721-approve}."
      },
      "balanceOf(address)": {
        "details": "See {IERC721-balanceOf}."
      },
      "getApproved(uint256)": {
        "details": "See {IERC721-getApproved}."
      },
      "isApprovedForAll(address,address)": {
        "details": "See {IERC721-isApprovedForAll}."
      },
      "name()": {
        "details": "See {IERC721Metadata-name}."
      },
      "ownerOf(uint256)": {
        "details": "See {IERC721-ownerOf}."
      },
      "safeTransferFrom(address,address,uint256)": {
        "details": "See {IERC721-safeTransferFrom}."
      },
      "safeTransferFrom(address,address,uint256,bytes)": {
        "details": "See {IERC721-safeTransferFrom}."
      },
      "setApprovalForAll(address,bool)": {
        "details": "See {IERC721-setApprovalForAll}."
      },
      "supportsInterface(bytes4)": {
        "details": "See {IERC165-supportsInterface}."
      },
      "symbol()": {
        "details": "See {IERC721Metadata-symbol}."
      },
      "tokenByIndex(uint256)": {
        "details": "See {IERC721Enumerable-tokenByIndex}."
      },
      "tokenOfOwnerByIndex(address,uint256)": {
        "details": "See {IERC721Enumerable-tokenOfOwnerByIndex}."
      },
      "tokenURI(uint256)": {
        "details": "See {IERC721Metadata-tokenURI}."
      },
      "totalSupply()": {
        "details": "See {IERC721Enumerable-totalSupply}."
      },
      "transferFrom(address,address,uint256)": {
        "details": "See {IERC721-transferFrom}."
      }
    },
    "version": 1
  },
  "userdoc": {
    "kind": "user",
    "methods": {},
    "version": 1
  }
}