{
  "contractName": "ImageSaleContract",
  "abi": [
    {
      "inputs": [
        {
          "internalType": "contract ImageContract",
          "name": "_imageContract",
          "type": "address"
        }
      ],
      "stateMutability": "nonpayable",
      "type": "constructor"
    },
    {
      "anonymous": false,
      "inputs": [
        {
          "indexed": false,
          "internalType": "uint256",
          "name": "_tokenId",
          "type": "uint256"
        },
        {
          "indexed": false,
          "internalType": "address",
          "name": "_buyer",
          "type": "address"
        },
        {
          "indexed": false,
          "internalType": "uint256",
          "name": "_price",
          "type": "uint256"
        }
      ],
      "name": "BoughtNFT",
      "type": "event"
    },
    {
      "inputs": [],
      "name": "imageContract",
      "outputs": [
        {
          "internalType": "contract ImageContract",
          "name": "",
          "type": "address"
        }
      ],
      "stateMutability": "view",
      "type": "function",
      "constant": true
    },
    {
      "inputs": [
        {
          "internalType": "address",
          "name": "_owner",
          "type": "address"
        },
        {
          "internalType": "uint256",
          "name": "_tokenId",
          "type": "uint256"
        },
        {
          "internalType": "uint256",
          "name": "_price",
          "type": "uint256"
        }
      ],
      "name": "buyImage",
      "outputs": [],
      "stateMutability": "payable",
      "type": "function",
      "payable": true
    },
    {
      "inputs": [
        {
          "internalType": "address",
          "name": "_owner",
          "type": "address"
        },
        {
          "internalType": "uint256",
          "name": "_tokenId",
          "type": "uint256"
        },
        {
          "internalType": "uint256",
          "name": "_price",
          "type": "uint256"
        }
      ],
      "name": "bid",
      "outputs": [],
      "stateMutability": "payable",
      "type": "function",
      "payable": true
    }
  ],
  "bytecode": "0x608060405234801561001057600080fd5b506040516106ed3803806106ed833981810160405281019061003291906100ce565b306000806101000a81548173ffffffffffffffffffffffffffffffffffffffff021916908373ffffffffffffffffffffffffffffffffffffffff16021790555080600160006101000a81548173ffffffffffffffffffffffffffffffffffffffff021916908373ffffffffffffffffffffffffffffffffffffffff16021790555050610152565b6000815190506100c88161013b565b92915050565b6000602082840312156100e057600080fd5b60006100ee848285016100b9565b91505092915050565b60006101028261011b565b9050919050565b6000610114826100f7565b9050919050565b600073ffffffffffffffffffffffffffffffffffffffff82169050919050565b61014481610109565b811461014f57600080fd5b50565b61058c806101616000396000f3fe6080604052600436106100345760003560e01c80630f41ba4b146100395780635d135d2c14610055578063ce6c178814610080575b600080fd5b610053600480360381019061004e91906103a8565b61009c565b005b34801561006157600080fd5b5061006a6101fa565b604051610077919061045b565b60405180910390f35b61009a600480360381019061009591906103a8565b610220565b005b600160009054906101000a900473ffffffffffffffffffffffffffffffffffffffff1673ffffffffffffffffffffffffffffffffffffffff166323b872dd8433856040518463ffffffff1660e01b81526004016100fb93929190610424565b600060405180830381600087803b15801561011557600080fd5b505af1158015610129573d6000803e3d6000fd5b50505050600160009054906101000a900473ffffffffffffffffffffffffffffffffffffffff1673ffffffffffffffffffffffffffffffffffffffff166316875c11836040518263ffffffff1660e01b81526004016101889190610476565b600060405180830381600087803b1580156101a257600080fd5b505af11580156101b6573d6000803e3d6000fd5b505050507fb6a905095cc0da6554868381c57c41a8a986dbee5b595c4921562f0bfc29c16b8233836040516101ed93929190610491565b60405180910390a1505050565b600160009054906101000a900473ffffffffffffffffffffffffffffffffffffffff1681565b600160009054906101000a900473ffffffffffffffffffffffffffffffffffffffff1673ffffffffffffffffffffffffffffffffffffffff166323b872dd8433856040518463ffffffff1660e01b815260040161027f93929190610424565b600060405180830381600087803b15801561029957600080fd5b505af11580156102ad573d6000803e3d6000fd5b50505050600160009054906101000a900473ffffffffffffffffffffffffffffffffffffffff1673ffffffffffffffffffffffffffffffffffffffff166316875c11836040518263ffffffff1660e01b815260040161030c9190610476565b600060405180830381600087803b15801561032657600080fd5b505af115801561033a573d6000803e3d6000fd5b505050507fb6a905095cc0da6554868381c57c41a8a986dbee5b595c4921562f0bfc29c16b82338360405161037193929190610491565b60405180910390a1505050565b60008135905061038d81610528565b92915050565b6000813590506103a28161053f565b92915050565b6000806000606084860312156103bd57600080fd5b60006103cb8682870161037e565b93505060206103dc86828701610393565b92505060406103ed86828701610393565b9150509250925092565b610400816104c8565b82525050565b61040f81610504565b82525050565b61041e816104fa565b82525050565b600060608201905061043960008301866103f7565b61044660208301856103f7565b6104536040830184610415565b949350505050565b60006020820190506104706000830184610406565b92915050565b600060208201905061048b6000830184610415565b92915050565b60006060820190506104a66000830186610415565b6104b360208301856103f7565b6104c06040830184610415565b949350505050565b60006104d3826104da565b9050919050565b600073ffffffffffffffffffffffffffffffffffffffff82169050919050565b6000819050919050565b600061050f82610516565b9050919050565b6000610521826104da565b9050919050565b610531816104c8565b811461053c57600080fd5b50565b610548816104fa565b811461055357600080fd5b5056fea26469706673582212208a9898fd5766098587b791095900506fd1cd6da380b3dc5f2b105f882ccf045464736f6c63430008000033",
  "immutableReferences": {},
  "source": "pragma solidity >0.5.0;\r\n\r\nimport \"./ImageContract.sol\";\r\n\r\ncontract ImageSaleContract {\r\n\r\n    address admin;\r\n    ImageContract public imageContract;\r\n\r\n    event BoughtNFT(uint256 _tokenId, address _buyer, uint256 _price);\r\n\r\n    constructor(ImageContract _imageContract) public {\r\n        admin = address(this);\r\n        imageContract = _imageContract;\r\n    }\r\n\r\n    function buyImage(address _owner, uint256 _tokenId, uint256 _price) public payable {\r\n        imageContract.transferFrom(_owner, msg.sender, _tokenId);\r\n        imageContract.nftSold(_tokenId);\r\n        emit BoughtNFT(_tokenId, msg.sender, _price);\r\n    }\r\n\r\n    function bid(address _owner, uint256 _tokenId, uint256 _price) public payable {\r\n        imageContract.transferFrom(_owner, msg.sender, _tokenId);\r\n        imageContract.nftSold(_tokenId);\r\n        emit BoughtNFT(_tokenId, msg.sender, _price);\r\n    }\r\n\r\n}",
  "sourcePath": "C:/Users/Adi/Documents/BinanceIDO/nft-market/src/contracts/ImageSaleContract.sol",
  "compiler": {
    "name": "solc",
    "version": "0.8.0+commit.c7dfd78e.Emscripten.clang"
  },
  "schemaVersion": "3.3.4",
  "updatedAt": "2021-11-06T12:46:42.278Z",
  "networkType": "ethereum",
  "devdoc": {
    "kind": "dev",
    "methods": {},
    "version": 1
  },
  "userdoc": {
    "kind": "user",
    "methods": {},
    "version": 1
  }
}