{
  "contractName": "TokenSaleContract",
  "abi": [
    {
      "inputs": [
        {
          "internalType": "contract TokenContract",
          "name": "_tokenContract",
          "type": "address"
        },
        {
          "internalType": "uint256",
          "name": "_tokenPrice",
          "type": "uint256"
        }
      ],
      "stateMutability": "nonpayable",
      "type": "constructor"
    },
    {
      "anonymous": false,
      "inputs": [
        {
          "indexed": false,
          "internalType": "address",
          "name": "_buyer",
          "type": "address"
        },
        {
          "indexed": false,
          "internalType": "uint256",
          "name": "_amount",
          "type": "uint256"
        }
      ],
      "name": "Sell",
      "type": "event"
    },
    {
      "inputs": [],
      "name": "tokenContract",
      "outputs": [
        {
          "internalType": "contract TokenContract",
          "name": "",
          "type": "address"
        }
      ],
      "stateMutability": "view",
      "type": "function",
      "constant": true
    },
    {
      "inputs": [],
      "name": "tokenPrice",
      "outputs": [
        {
          "internalType": "uint256",
          "name": "",
          "type": "uint256"
        }
      ],
      "stateMutability": "view",
      "type": "function",
      "constant": true
    },
    {
      "inputs": [],
      "name": "tokensSold",
      "outputs": [
        {
          "internalType": "uint256",
          "name": "",
          "type": "uint256"
        }
      ],
      "stateMutability": "view",
      "type": "function",
      "constant": true
    },
    {
      "inputs": [
        {
          "internalType": "uint256",
          "name": "_numberOfTokens",
          "type": "uint256"
        }
      ],
      "name": "buyTokens",
      "outputs": [],
      "stateMutability": "payable",
      "type": "function",
      "payable": true
    },
    {
      "inputs": [],
      "name": "balanceTokens",
      "outputs": [
        {
          "internalType": "uint256",
          "name": "",
          "type": "uint256"
        }
      ],
      "stateMutability": "nonpayable",
      "type": "function"
    }
  ],
  "bytecode": "0x60806040523480156200001157600080fd5b50604051620009eb380380620009eb8339818101604052810190620000379190620001d6565b306000806101000a81548173ffffffffffffffffffffffffffffffffffffffff021916908373ffffffffffffffffffffffffffffffffffffffff16021790555081600160006101000a81548173ffffffffffffffffffffffffffffffffffffffff021916908373ffffffffffffffffffffffffffffffffffffffff160217905550806002819055508173ffffffffffffffffffffffffffffffffffffffff166340c10f193069d3c21bcecceda10000006040518363ffffffff1660e01b81526004016200010692919062000239565b602060405180830381600087803b1580156200012157600080fd5b505af115801562000136573d6000803e3d6000fd5b505050506040513d601f19601f820116820180604052508101906200015c9190620001aa565b50505062000326565b6000815190506200017681620002d8565b92915050565b6000815190506200018d81620002f2565b92915050565b600081519050620001a4816200030c565b92915050565b600060208284031215620001bd57600080fd5b6000620001cd8482850162000165565b91505092915050565b60008060408385031215620001ea57600080fd5b6000620001fa858286016200017c565b92505060206200020d8582860162000193565b9150509250929050565b620002228162000266565b82525050565b6200023381620002c4565b82525050565b600060408201905062000250600083018562000217565b6200025f602083018462000228565b9392505050565b600062000273826200029a565b9050919050565b60008115159050919050565b6000620002938262000266565b9050919050565b600073ffffffffffffffffffffffffffffffffffffffff82169050919050565b6000819050919050565b6000620002d182620002ba565b9050919050565b620002e3816200027a565b8114620002ef57600080fd5b50565b620002fd8162000286565b81146200030957600080fd5b50565b6200031781620002ba565b81146200032357600080fd5b50565b6106b580620003366000396000f3fe60806040526004361061004a5760003560e01c80633610724e1461004f578063518ab2a81461006b57806355a373d6146100965780637ff9b596146100c1578063e4494a0f146100ec575b600080fd5b61006960048036038101906100649190610467565b610117565b005b34801561007757600080fd5b506100806102fb565b60405161008d9190610545565b60405180910390f35b3480156100a257600080fd5b506100ab610301565b6040516100b8919061052a565b60405180910390f35b3480156100cd57600080fd5b506100d6610327565b6040516100e39190610545565b60405180910390f35b3480156100f857600080fd5b5061010161032d565b60405161010e9190610545565b60405180910390f35b80600160009054906101000a900473ffffffffffffffffffffffffffffffffffffffff1673ffffffffffffffffffffffffffffffffffffffff166370a0823160008054906101000a900473ffffffffffffffffffffffffffffffffffffffff166040518263ffffffff1660e01b815260040161019391906104e6565b60206040518083038186803b1580156101ab57600080fd5b505afa1580156101bf573d6000803e3d6000fd5b505050506040513d601f19601f820116820180604052508101906101e39190610490565b10156101ee57600080fd5b600160009054906101000a900473ffffffffffffffffffffffffffffffffffffffff1673ffffffffffffffffffffffffffffffffffffffff1663a9059cbb33836040518363ffffffff1660e01b815260040161024b929190610501565b602060405180830381600087803b15801561026557600080fd5b505af1158015610279573d6000803e3d6000fd5b505050506040513d601f19601f8201168201806040525081019061029d919061043e565b6102a657600080fd5b80600360008282546102b89190610560565b925050819055507f5e5e995ce3133561afceaa51a9a154d5db228cd7525d34df5185582c18d3df0933826040516102f0929190610501565b60405180910390a150565b60035481565b600160009054906101000a900473ffffffffffffffffffffffffffffffffffffffff1681565b60025481565b6000600160009054906101000a900473ffffffffffffffffffffffffffffffffffffffff1673ffffffffffffffffffffffffffffffffffffffff166370a0823160008054906101000a900473ffffffffffffffffffffffffffffffffffffffff166040518263ffffffff1660e01b81526004016103aa91906104e6565b60206040518083038186803b1580156103c257600080fd5b505afa1580156103d6573d6000803e3d6000fd5b505050506040513d601f19601f820116820180604052508101906103fa9190610490565b905090565b60008151905061040e81610651565b92915050565b60008135905061042381610668565b92915050565b60008151905061043881610668565b92915050565b60006020828403121561045057600080fd5b600061045e848285016103ff565b91505092915050565b60006020828403121561047957600080fd5b600061048784828501610414565b91505092915050565b6000602082840312156104a257600080fd5b60006104b084828501610429565b91505092915050565b6104c2816105b6565b82525050565b6104d1816105fe565b82525050565b6104e0816105f4565b82525050565b60006020820190506104fb60008301846104b9565b92915050565b600060408201905061051660008301856104b9565b61052360208301846104d7565b9392505050565b600060208201905061053f60008301846104c8565b92915050565b600060208201905061055a60008301846104d7565b92915050565b600061056b826105f4565b9150610576836105f4565b9250827fffffffffffffffffffffffffffffffffffffffffffffffffffffffffffffffff038211156105ab576105aa610622565b5b828201905092915050565b60006105c1826105d4565b9050919050565b60008115159050919050565b600073ffffffffffffffffffffffffffffffffffffffff82169050919050565b6000819050919050565b600061060982610610565b9050919050565b600061061b826105d4565b9050919050565b7f4e487b7100000000000000000000000000000000000000000000000000000000600052601160045260246000fd5b61065a816105c8565b811461066557600080fd5b50565b610671816105f4565b811461067c57600080fd5b5056fea264697066735822122002297237fc018f1494f18b1de1baaec1c924b33d6de85895577ec89ad165969064736f6c63430008000033",
  "immutableReferences": {},
  "source": "pragma solidity >0.5.0;\r\n\r\nimport \"./TokenContract.sol\";\r\n\r\ncontract TokenSaleContract {\r\n    address admin;\r\n    TokenContract public tokenContract;\r\n    uint256 public tokenPrice;\r\n    uint256 public tokensSold;\r\n\r\n    event Sell(address _buyer, uint256 _amount);\r\n\r\n    constructor(TokenContract _tokenContract, uint256 _tokenPrice) public {\r\n        admin = address(this);\r\n        tokenContract = _tokenContract;\r\n        tokenPrice = _tokenPrice;\r\n\r\n        _tokenContract.mint(address(this), 1000000000000000000000000);\r\n    }\r\n\r\n    // function multiply(uint x, uint y) internal pure returns (uint z) {\r\n    //     require(y == 0 || (z = x * y) / y == x);\r\n    // }\r\n\r\n    function buyTokens(uint256 _numberOfTokens) public payable {\r\n        // require(msg.value == multiply(_numberOfTokens, tokenPrice));\r\n        require(tokenContract.balanceOf(admin) >= _numberOfTokens);\r\n        require(tokenContract.transfer(msg.sender, _numberOfTokens));\r\n        tokensSold += _numberOfTokens;\r\n        emit Sell(msg.sender, _numberOfTokens);\r\n    }\r\n\r\n    function balanceTokens() public returns (uint) {\r\n        return tokenContract.balanceOf(admin);\r\n    }\r\n\r\n}",
  "sourcePath": "C:/Users/Adi/Documents/BinanceIDO/nft-market/src/contracts/TokenSaleContract.sol",
  "compiler": {
    "name": "solc",
    "version": "0.8.0+commit.c7dfd78e.Emscripten.clang"
  },
  "schemaVersion": "3.3.4",
  "updatedAt": "2021-11-06T12:46:42.327Z",
  "networkType": "ethereum",
  "devdoc": {
    "kind": "dev",
    "methods": {},
    "version": 1
  },
  "userdoc": {
    "kind": "user",
    "methods": {},
    "version": 1
  }
}